{
  "contractName": "TestgroundGame",
  "abi": [
    {
      "inputs": [],
      "stateMutability": "nonpayable",
      "type": "constructor"
    },
    {
      "inputs": [
        {
          "internalType": "bytes32",
          "name": "",
          "type": "bytes32"
        },
        {
          "internalType": "uint256",
          "name": "",
          "type": "uint256"
        }
      ],
      "name": "attacked_characters",
      "outputs": [
        {
          "internalType": "string",
          "name": "",
          "type": "string"
        }
      ],
      "stateMutability": "view",
      "type": "function",
      "constant": true
    },
    {
      "inputs": [
        {
          "internalType": "bytes32",
          "name": "",
          "type": "bytes32"
        },
        {
          "internalType": "uint256",
          "name": "",
          "type": "uint256"
        }
      ],
      "name": "attacker_characters",
      "outputs": [
        {
          "internalType": "string",
          "name": "",
          "type": "string"
        }
      ],
      "stateMutability": "view",
      "type": "function",
      "constant": true
    },
    {
      "inputs": [
        {
          "internalType": "bytes32",
          "name": "",
          "type": "bytes32"
        },
        {
          "internalType": "uint256",
          "name": "",
          "type": "uint256"
        }
      ],
      "name": "damage_dealt",
      "outputs": [
        {
          "internalType": "uint256",
          "name": "",
          "type": "uint256"
        }
      ],
      "stateMutability": "view",
      "type": "function",
      "constant": true
    },
    {
      "inputs": [],
      "name": "logger",
      "outputs": [
        {
          "internalType": "string",
          "name": "",
          "type": "string"
        }
      ],
      "stateMutability": "view",
      "type": "function",
      "constant": true
    },
    {
      "inputs": [
        {
          "internalType": "bytes32",
          "name": "",
          "type": "bytes32"
        }
      ],
      "name": "player",
      "outputs": [
        {
          "internalType": "address",
          "name": "",
          "type": "address"
        }
      ],
      "stateMutability": "view",
      "type": "function",
      "constant": true
    },
    {
      "inputs": [
        {
          "internalType": "address",
          "name": "",
          "type": "address"
        }
      ],
      "name": "player_match",
      "outputs": [
        {
          "internalType": "bytes32",
          "name": "",
          "type": "bytes32"
        }
      ],
      "stateMutability": "view",
      "type": "function",
      "constant": true
    },
    {
      "inputs": [
        {
          "internalType": "address",
          "name": "",
          "type": "address"
        }
      ],
      "name": "player_state",
      "outputs": [
        {
          "internalType": "string",
          "name": "",
          "type": "string"
        }
      ],
      "stateMutability": "view",
      "type": "function",
      "constant": true
    },
    {
      "inputs": [
        {
          "internalType": "bytes32",
          "name": "requestId",
          "type": "bytes32"
        },
        {
          "internalType": "uint256",
          "name": "randomness",
          "type": "uint256"
        }
      ],
      "name": "rawFulfillRandomness",
      "outputs": [],
      "stateMutability": "nonpayable",
      "type": "function"
    },
    {
      "inputs": [
        {
          "internalType": "uint256",
          "name": "userProvidedSeed",
          "type": "uint256"
        }
      ],
      "name": "roll",
      "outputs": [
        {
          "internalType": "bytes32",
          "name": "_requestId",
          "type": "bytes32"
        }
      ],
      "stateMutability": "nonpayable",
      "type": "function"
    }
  ],
  "bytecode": "0x60c06040526040518060400160405280600481526020017f696e697400000000000000000000000000000000000000000000000000000000815250600190805190602001906200005192919062000185565b503480156200005f57600080fd5b50738c7382f9d8f56b33781fe506e897a4f1e2d1725573326c977e6efc84e512bb9c30f76e30c160ed06fb8173ffffffffffffffffffffffffffffffffffffffff1660a08173ffffffffffffffffffffffffffffffffffffffff1660601b815250508073ffffffffffffffffffffffffffffffffffffffff1660808173ffffffffffffffffffffffffffffffffffffffff1660601b8152505050507f6e75b569a01ef56d18cab6a8e71e6600d6ce853834d4a5748b720d06f878b3a460001b600281905550655af3107a40006003819055506040518060400160405280600981526020017f636f6e7374727563740000000000000000000000000000000000000000000000815250600190805190602001906200017e92919062000185565b506200029a565b828054620001939062000235565b90600052602060002090601f016020900481019282620001b7576000855562000203565b82601f10620001d257805160ff191683800117855562000203565b8280016001018555821562000203579182015b8281111562000202578251825591602001919060010190620001e5565b5b50905062000212919062000216565b5090565b5b808211156200023157600081600090555060010162000217565b5090565b600060028204905060018216806200024e57607f821691505b602082108114156200026557620002646200026b565b5b50919050565b7f4e487b7100000000000000000000000000000000000000000000000000000000600052602260045260246000fd5b60805160601c60a05160601c611b3a620002d460003960008181610619015261086b015260008181610229015261082f0152611b3a6000f3fe608060405234801561001057600080fd5b50600436106100935760003560e01c806394985ddd1161006657806394985ddd146101585780639d69a0c414610174578063d7c00215146101a4578063f24ccbfe146101d4578063f9f4900e146101f257610093565b80631f7b4f30146100985780632fadd10d146100c857806330b57b1e146100f85780634abcde2d14610128575b600080fd5b6100b260048036038101906100ad91906114ff565b610222565b6040516100bf9190611749565b60405180910390f35b6100e260048036038101906100dd9190611448565b610497565b6040516100ef91906117d2565b60405180910390f35b610112600480360381019061010d919061149a565b610537565b60405161011f91906116f0565b60405180910390f35b610142600480360381019061013d91906114c3565b61056a565b60405161014f91906117d2565b60405180910390f35b610172600480360381019061016d91906114c3565b610617565b005b61018e600480360381019061018991906114c3565b6106b3565b60405161019b91906117d2565b60405180910390f35b6101be60048036038101906101b991906114c3565b610760565b6040516101cb9190611834565b60405180910390f35b6101dc610785565b6040516101e991906117d2565b60405180910390f35b61020c60048036038101906102079190611448565b610813565b6040516102199190611749565b60405180910390f35b60006003547f000000000000000000000000000000000000000000000000000000000000000073ffffffffffffffffffffffffffffffffffffffff166370a08231306040518263ffffffff1660e01b815260040161028091906116f0565b60206040518083038186803b15801561029857600080fd5b505afa1580156102ac573d6000803e3d6000fd5b505050506040513d601f19601f820116820180604052508101906102d09190611528565b11610310576040517f08c379a0000000000000000000000000000000000000000000000000000000008152600401610307906117f4565b60405180910390fd5b60006103216002546003548561082b565b9050336004600083815260200190815260200160002060006101000a81548173ffffffffffffffffffffffffffffffffffffffff021916908373ffffffffffffffffffffffffffffffffffffffff1602179055506040518060400160405280601281526020017f77616974696e6720666f72206f7261636c650000000000000000000000000000815250600560003373ffffffffffffffffffffffffffffffffffffffff1673ffffffffffffffffffffffffffffffffffffffff16815260200190815260200160002090805190602001906103fd92919061133c565b5080600660003373ffffffffffffffffffffffffffffffffffffffff1673ffffffffffffffffffffffffffffffffffffffff168152602001908152602001600020819055506040518060400160405280600481526020017f726f6c6c000000000000000000000000000000000000000000000000000000008152506001908051906020019061048d92919061133c565b5080915050919050565b600560205280600052604060002060009150905080546104b690611993565b80601f01602080910402602001604051908101604052809291908181526020018280546104e290611993565b801561052f5780601f106105045761010080835404028352916020019161052f565b820191906000526020600020905b81548152906001019060200180831161051257829003601f168201915b505050505081565b60046020528060005260406000206000915054906101000a900473ffffffffffffffffffffffffffffffffffffffff1681565b600860205281600052604060002060205280600052604060002060009150915050805461059690611993565b80601f01602080910402602001604051908101604052809291908181526020018280546105c290611993565b801561060f5780601f106105e45761010080835404028352916020019161060f565b820191906000526020600020905b8154815290600101906020018083116105f257829003601f168201915b505050505081565b7f000000000000000000000000000000000000000000000000000000000000000073ffffffffffffffffffffffffffffffffffffffff163373ffffffffffffffffffffffffffffffffffffffff16146106a5576040517f08c379a000000000000000000000000000000000000000000000000000000000815260040161069c90611814565b60405180910390fd5b6106af8282610989565b5050565b60076020528160005260406000206020528060005260406000206000915091505080546106df90611993565b80601f016020809104026020016040519081016040528092919081815260200182805461070b90611993565b80156107585780601f1061072d57610100808354040283529160200191610758565b820191906000526020600020905b81548152906001019060200180831161073b57829003601f168201915b505050505081565b6009602052816000526040600020602052806000526040600020600091509150505481565b6001805461079290611993565b80601f01602080910402602001604051908101604052809291908181526020018280546107be90611993565b801561080b5780601f106107e05761010080835404028352916020019161080b565b820191906000526020600020905b8154815290600101906020018083116107ee57829003601f168201915b505050505081565b60066020528060005260406000206000915090505481565b60007f000000000000000000000000000000000000000000000000000000000000000073ffffffffffffffffffffffffffffffffffffffff16634000aea07f000000000000000000000000000000000000000000000000000000000000000085878660405160200161089e929190611764565b6040516020818303038152906040526040518463ffffffff1660e01b81526004016108cb9392919061170b565b602060405180830381600087803b1580156108e557600080fd5b505af11580156108f9573d6000803e3d6000fd5b505050506040513d601f19601f8201168201806040525081019061091d9190611471565b50600061093e8584306000808a8152602001908152602001600020546112cd565b905060016000808781526020019081526020016000205461095f9190611887565b6000808781526020019081526020016000208190555061097f8582611309565b9150509392505050565b6040518060400160405280600f81526020017f6d617463682067656e6572617465640000000000000000000000000000000000815250600560006004600086815260200190815260200160002060009054906101000a900473ffffffffffffffffffffffffffffffffffffffff1673ffffffffffffffffffffffffffffffffffffffff1673ffffffffffffffffffffffffffffffffffffffff1681526020019081526020016000209080519060200190610a4492919061133c565b506040518060400160405280600781526020017f66756c66696c6c0000000000000000000000000000000000000000000000000081525060019080519060200190610a9092919061133c565b5060006040518060400160405280600681526020017f707269657374000000000000000000000000000000000000000000000000000081525090506001600483610ada91906119d9565b1415610b19576040518060400160405280600781526020017f77617272696f720000000000000000000000000000000000000000000000000081525090505b6002600483610b2891906119d9565b1415610b67576040518060400160405280600681526020017f77697a617264000000000000000000000000000000000000000000000000000081525090505b6003600483610b7691906119d9565b1415610bb5576040518060400160405280600581526020017f726f67756500000000000000000000000000000000000000000000000000000081525090505b806007600085815260200190815260200160002060008081526020019081526020016000209080519060200190610bed92919061133c565b506040518060400160405280600681526020017f647261676f6e00000000000000000000000000000000000000000000000000008152506008600085815260200190815260200160002060008081526020019081526020016000209080519060200190610c5b92919061133c565b506107d082610c6a91906119d9565b60096000858152602001908152602001600020600080815260200190815260200160002081905550600782610c9f91906118dd565b915060006040518060400160405280600681526020017f707269657374000000000000000000000000000000000000000000000000000081525090506001600484610cea91906119d9565b1415610d29576040518060400160405280600781526020017f77617272696f720000000000000000000000000000000000000000000000000081525090505b6002600484610d3891906119d9565b1415610d77576040518060400160405280600681526020017f77697a617264000000000000000000000000000000000000000000000000000081525090505b6003600484610d8691906119d9565b1415610dc5576040518060400160405280600581526020017f726f67756500000000000000000000000000000000000000000000000000000081525090505b6040518060400160405280600681526020017f647261676f6e0000000000000000000000000000000000000000000000000000815250600760008681526020019081526020016000206000600181526020019081526020016000209080519060200190610e3392919061133c565b5080600860008681526020019081526020016000206000600181526020019081526020016000209080519060200190610e6d92919061133c565b5061271083610e7c91906119d9565b6009600086815260200190815260200160002060006001815260200190815260200160002081905550600d83610eb291906118dd565b92506040518060400160405280600681526020017f707269657374000000000000000000000000000000000000000000000000000081525090506001600484610efb91906119d9565b1415610f3a576040518060400160405280600781526020017f77617272696f720000000000000000000000000000000000000000000000000081525090505b6002600484610f4991906119d9565b1415610f88576040518060400160405280600681526020017f77697a617264000000000000000000000000000000000000000000000000000081525090505b6003600484610f9791906119d9565b1415610fd6576040518060400160405280600581526020017f726f67756500000000000000000000000000000000000000000000000000000081525090505b8060076000868152602001908152602001600020600060028152602001908152602001600020908051906020019061100f92919061133c565b506040518060400160405280600681526020017f647261676f6e000000000000000000000000000000000000000000000000000081525060086000868152602001908152602001600020600060028152602001908152602001600020908051906020019061107e92919061133c565b506107d08361108d91906119d9565b60096000868152602001908152602001600020600060028152602001908152602001600020819055506011836110c391906118dd565b92506040518060400160405280600681526020017f70726965737400000000000000000000000000000000000000000000000000008152509050600160048461110c91906119d9565b141561114b576040518060400160405280600781526020017f77617272696f720000000000000000000000000000000000000000000000000081525090505b600260048461115a91906119d9565b1415611199576040518060400160405280600681526020017f77697a617264000000000000000000000000000000000000000000000000000081525090505b60036004846111a891906119d9565b14156111e7576040518060400160405280600581526020017f726f67756500000000000000000000000000000000000000000000000000000081525090505b6040518060400160405280600681526020017f647261676f6e000000000000000000000000000000000000000000000000000081525060076000868152602001908152602001600020600060038152602001908152602001600020908051906020019061125592919061133c565b508060086000868152602001908152602001600020600060038152602001908152602001600020908051906020019061128f92919061133c565b506127108361129e91906119d9565b600960008681526020019081526020016000206000600381526020019081526020016000208190555050505050565b6000848484846040516020016112e6949392919061178d565b6040516020818303038152906040528051906020012060001c9050949350505050565b6000828260405160200161131e9291906116c4565b60405160208183030381529060405280519060200120905092915050565b82805461134890611993565b90600052602060002090601f01602090048101928261136a57600085556113b1565b82601f1061138357805160ff19168380011785556113b1565b828001600101855582156113b1579182015b828111156113b0578251825591602001919060010190611395565b5b5090506113be91906113c2565b5090565b5b808211156113db5760008160009055506001016113c3565b5090565b6000813590506113ee81611aa8565b92915050565b60008151905061140381611abf565b92915050565b60008135905061141881611ad6565b92915050565b60008135905061142d81611aed565b92915050565b60008151905061144281611aed565b92915050565b60006020828403121561145a57600080fd5b6000611468848285016113df565b91505092915050565b60006020828403121561148357600080fd5b6000611491848285016113f4565b91505092915050565b6000602082840312156114ac57600080fd5b60006114ba84828501611409565b91505092915050565b600080604083850312156114d657600080fd5b60006114e485828601611409565b92505060206114f58582860161141e565b9150509250929050565b60006020828403121561151157600080fd5b600061151f8482850161141e565b91505092915050565b60006020828403121561153a57600080fd5b600061154884828501611433565b91505092915050565b61155a8161190e565b82525050565b6115698161192c565b82525050565b61158061157b8261192c565b6119c5565b82525050565b60006115918261184f565b61159b8185611865565b93506115ab818560208601611960565b6115b481611a97565b840191505092915050565b60006115ca8261185a565b6115d48185611876565b93506115e4818560208601611960565b6115ed81611a97565b840191505092915050565b6000611605602b83611876565b91507f4e6f7420656e6f756768204c494e4b202d2066696c6c20636f6e74726163742060008301527f77697468206661756365740000000000000000000000000000000000000000006020830152604082019050919050565b600061166b601f83611876565b91507f4f6e6c7920565246436f6f7264696e61746f722063616e2066756c66696c6c006000830152602082019050919050565b6116a781611956565b82525050565b6116be6116b982611956565b6119cf565b82525050565b60006116d0828561156f565b6020820191506116e082846116ad565b6020820191508190509392505050565b60006020820190506117056000830184611551565b92915050565b60006060820190506117206000830186611551565b61172d602083018561169e565b818103604083015261173f8184611586565b9050949350505050565b600060208201905061175e6000830184611560565b92915050565b60006040820190506117796000830185611560565b611786602083018461169e565b9392505050565b60006080820190506117a26000830187611560565b6117af602083018661169e565b6117bc6040830185611551565b6117c9606083018461169e565b95945050505050565b600060208201905081810360008301526117ec81846115bf565b905092915050565b6000602082019050818103600083015261180d816115f8565b9050919050565b6000602082019050818103600083015261182d8161165e565b9050919050565b6000602082019050611849600083018461169e565b92915050565b600081519050919050565b600081519050919050565b600082825260208201905092915050565b600082825260208201905092915050565b600061189282611956565b915061189d83611956565b9250827fffffffffffffffffffffffffffffffffffffffffffffffffffffffffffffffff038211156118d2576118d1611a0a565b5b828201905092915050565b60006118e882611956565b91506118f383611956565b92508261190357611902611a39565b5b828204905092915050565b600061191982611936565b9050919050565b60008115159050919050565b6000819050919050565b600073ffffffffffffffffffffffffffffffffffffffff82169050919050565b6000819050919050565b60005b8381101561197e578082015181840152602081019050611963565b8381111561198d576000848401525b50505050565b600060028204905060018216806119ab57607f821691505b602082108114156119bf576119be611a68565b5b50919050565b6000819050919050565b6000819050919050565b60006119e482611956565b91506119ef83611956565b9250826119ff576119fe611a39565b5b828206905092915050565b7f4e487b7100000000000000000000000000000000000000000000000000000000600052601160045260246000fd5b7f4e487b7100000000000000000000000000000000000000000000000000000000600052601260045260246000fd5b7f4e487b7100000000000000000000000000000000000000000000000000000000600052602260045260246000fd5b6000601f19601f8301169050919050565b611ab18161190e565b8114611abc57600080fd5b50565b611ac881611920565b8114611ad357600080fd5b50565b611adf8161192c565b8114611aea57600080fd5b50565b611af681611956565b8114611b0157600080fd5b5056fea264697066735822122031a278ecd22207b2c3dcd1c4c66e7a92146d43a051354991a1a0ab5e494a537664736f6c63430008000033",
  "immutableReferences": {
    "1252": [
      {
        "length": 32,
        "start": 553
      },
      {
        "length": 32,
        "start": 2095
      }
    ],
    "1254": [
      {
        "length": 32,
        "start": 1561
      },
      {
        "length": 32,
        "start": 2155
      }
    ]
  },
  "source": "// SPDX-License-Identifier: MIT\npragma solidity 0.8.0;\n\nimport \"./MyERC20.sol\";\nimport \"./dependencies/VRFConsumerBase.sol\";\n\ncontract TestgroundGame is VRFConsumerBase {\n  string public logger = \"init\";\n  // Chainlink internal setup\n  bytes32 internal keyHash;\n  uint256 internal fee;\n\n  // Random handlers\n\n  mapping(bytes32 => address) public player;\n  mapping(address => string) public player_state;\n  mapping(address => bytes32) public player_match;\n  mapping(bytes32 => mapping(uint256 => string)) public attacker_characters;\n  mapping(bytes32 => mapping(uint256 => string)) public attacked_characters;\n  mapping(bytes32 => mapping(uint256 => uint256)) public damage_dealt;\n\n  constructor()\n  public\n  VRFConsumerBase(\n    0x8C7382F9D8f56b33781fE506E897a4F1e2d17255 /* VRF Coordinator */,\n    0x326C977E6efc84E512bB9C30f76E30c160eD06FB /* Link Mumbai Token Contract */)\n  {\n    keyHash = 0x6e75b569a01ef56d18cab6a8e71e6600d6ce853834d4a5748b720d06f878b3a4;\n    fee = 0.0001 * 10 ** 18;\n\n    logger = \"construct\";\n  }\n\n  function roll(uint256 userProvidedSeed) public returns (bytes32 _requestId) {\n    require(LINK.balanceOf(address(this)) > fee, \"Not enough LINK - fill contract with faucet\");\n    bytes32 requestId = requestRandomness(keyHash, fee, userProvidedSeed);\n\n    player[requestId] = msg.sender;\n    player_state[msg.sender] = \"waiting for oracle\";\n    player_match[msg.sender] = requestId;\n\n    logger = \"roll\";\n\n    return requestId;\n  }\n\n  function fulfillRandomness(bytes32 requestId, uint256 randomness) internal override {\n    player_state[player[requestId]] = \"match generated\";\n    logger = \"fulfill\";\n\n    string memory attacker = \"priest\";\n    if(randomness%4==1)attacker = \"warrior\";if(randomness%4==2)attacker = \"wizard\";if(randomness%4==3)attacker = \"rogue\";\n    attacker_characters[requestId][0] = attacker;\n    attacked_characters[requestId][0] = \"dragon\";\n    damage_dealt[requestId][0] = randomness%2000;\n\n    randomness/=7;\n    string memory attacked = \"priest\";\n    if(randomness%4==1)attacked = \"warrior\";if(randomness%4==2)attacked = \"wizard\";if(randomness%4==3)attacked = \"rogue\";\n    attacker_characters[requestId][1] = \"dragon\";\n    attacked_characters[requestId][1] = attacked;\n    damage_dealt[requestId][1] = randomness%10000;\n\n    randomness/=13;\n    attacked = \"priest\";\n    if(randomness%4==1)attacked = \"warrior\";if(randomness%4==2)attacked = \"wizard\";if(randomness%4==3)attacked = \"rogue\";\n    attacker_characters[requestId][2] = attacked;\n    attacked_characters[requestId][2] = \"dragon\";\n    damage_dealt[requestId][2] = randomness%2000;\n\n    randomness/=17;\n    attacked = \"priest\";\n    if(randomness%4==1)attacked = \"warrior\";if(randomness%4==2)attacked = \"wizard\";if(randomness%4==3)attacked = \"rogue\";\n    attacker_characters[requestId][3] = \"dragon\";\n    attacked_characters[requestId][3] = attacked;\n    damage_dealt[requestId][3] = randomness%10000;\n    /**/\n  }\n}\n",
  "sourcePath": "/home/turupawn/Projects/Blockchain/Games/MaticGachaGame/contracts/TestgroundGame.sol",
  "compiler": {
    "name": "solc",
    "version": "0.8.0+commit.c7dfd78e.Emscripten.clang"
  },
  "schemaVersion": "3.4.0",
  "updatedAt": "2021-05-10T23:01:41.115Z",
  "networkType": "ethereum",
  "devdoc": {
    "kind": "dev",
    "methods": {},
    "version": 1
  },
  "userdoc": {
    "kind": "user",
    "methods": {},
    "version": 1
  }
}