{
  "contractName": "TestgroundGame",
  "abi": [
    {
      "inputs": [],
      "stateMutability": "nonpayable",
      "type": "constructor"
    },
    {
      "inputs": [
        {
          "internalType": "bytes32",
          "name": "",
          "type": "bytes32"
        },
        {
          "internalType": "uint256",
          "name": "",
          "type": "uint256"
        }
      ],
      "name": "attacked_characters",
      "outputs": [
        {
          "internalType": "string",
          "name": "",
          "type": "string"
        }
      ],
      "stateMutability": "view",
      "type": "function",
      "constant": true
    },
    {
      "inputs": [
        {
          "internalType": "bytes32",
          "name": "",
          "type": "bytes32"
        },
        {
          "internalType": "uint256",
          "name": "",
          "type": "uint256"
        }
      ],
      "name": "attacker_characters",
      "outputs": [
        {
          "internalType": "string",
          "name": "",
          "type": "string"
        }
      ],
      "stateMutability": "view",
      "type": "function",
      "constant": true
    },
    {
      "inputs": [
        {
          "internalType": "bytes32",
          "name": "",
          "type": "bytes32"
        },
        {
          "internalType": "uint256",
          "name": "",
          "type": "uint256"
        }
      ],
      "name": "damage_dealt",
      "outputs": [
        {
          "internalType": "uint256",
          "name": "",
          "type": "uint256"
        }
      ],
      "stateMutability": "view",
      "type": "function",
      "constant": true
    },
    {
      "inputs": [
        {
          "internalType": "bytes32",
          "name": "",
          "type": "bytes32"
        }
      ],
      "name": "player",
      "outputs": [
        {
          "internalType": "address",
          "name": "",
          "type": "address"
        }
      ],
      "stateMutability": "view",
      "type": "function",
      "constant": true
    },
    {
      "inputs": [
        {
          "internalType": "address",
          "name": "",
          "type": "address"
        }
      ],
      "name": "player_state",
      "outputs": [
        {
          "internalType": "string",
          "name": "",
          "type": "string"
        }
      ],
      "stateMutability": "view",
      "type": "function",
      "constant": true
    },
    {
      "inputs": [
        {
          "internalType": "bytes32",
          "name": "requestId",
          "type": "bytes32"
        },
        {
          "internalType": "uint256",
          "name": "randomness",
          "type": "uint256"
        }
      ],
      "name": "rawFulfillRandomness",
      "outputs": [],
      "stateMutability": "nonpayable",
      "type": "function"
    },
    {
      "inputs": [
        {
          "internalType": "uint256",
          "name": "userProvidedSeed",
          "type": "uint256"
        }
      ],
      "name": "roll",
      "outputs": [
        {
          "internalType": "bytes32",
          "name": "_requestId",
          "type": "bytes32"
        }
      ],
      "stateMutability": "nonpayable",
      "type": "function"
    }
  ],
  "bytecode": "0x60c060405234801561001057600080fd5b50738c7382f9d8f56b33781fe506e897a4f1e2d1725573326c977e6efc84e512bb9c30f76e30c160ed06fb8173ffffffffffffffffffffffffffffffffffffffff1660a08173ffffffffffffffffffffffffffffffffffffffff1660601b815250508073ffffffffffffffffffffffffffffffffffffffff1660808173ffffffffffffffffffffffffffffffffffffffff1660601b8152505050507f6e75b569a01ef56d18cab6a8e71e6600d6ce853834d4a5748b720d06f878b3a460001b600181905550655af3107a400060028190555060805160601c60a05160601c61156061011b6000396000818161053101526106f50152600081816101c501526106b901526115606000f3fe608060405234801561001057600080fd5b506004361061007d5760003560e01c80634abcde2d1161005b5780634abcde2d1461011257806394985ddd146101425780639d69a0c41461015e578063d7c002151461018e5761007d565b80631f7b4f30146100825780632fadd10d146100b257806330b57b1e146100e2575b600080fd5b61009c60048036038101906100979190610fb6565b6101be565b6040516100a99190611200565b60405180910390f35b6100cc60048036038101906100c79190610eff565b6103a3565b6040516100d99190611289565b60405180910390f35b6100fc60048036038101906100f79190610f51565b610443565b60405161010991906111a7565b60405180910390f35b61012c60048036038101906101279190610f7a565b610476565b6040516101399190611289565b60405180910390f35b61015c60048036038101906101579190610f7a565b61052f565b005b61017860048036038101906101739190610f7a565b6105cb565b6040516101859190611289565b60405180910390f35b6101a860048036038101906101a39190610f7a565b610684565b6040516101b591906112eb565b60405180910390f35b60006002547f000000000000000000000000000000000000000000000000000000000000000073ffffffffffffffffffffffffffffffffffffffff166370a08231306040518263ffffffff1660e01b815260040161021c91906111a7565b60206040518083038186803b15801561023457600080fd5b505afa158015610248573d6000803e3d6000fd5b505050506040513d601f19601f8201168201806040525081019061026c9190610fdf565b116102ac576040517f08c379a00000000000000000000000000000000000000000000000000000000081526004016102a3906112ab565b60405180910390fd5b60006102bd600154600254856106b5565b9050336004600083815260200190815260200160002060006101000a81548173ffffffffffffffffffffffffffffffffffffffff021916908373ffffffffffffffffffffffffffffffffffffffff1602179055506040518060400160405280601181526020017f776174696e6720666f72206f7261636c65000000000000000000000000000000815250600360003373ffffffffffffffffffffffffffffffffffffffff1673ffffffffffffffffffffffffffffffffffffffff1681526020019081526020016000209080519060200190610399929190610df3565b5080915050919050565b600360205280600052604060002060009150905080546103c290611419565b80601f01602080910402602001604051908101604052809291908181526020018280546103ee90611419565b801561043b5780601f106104105761010080835404028352916020019161043b565b820191906000526020600020905b81548152906001019060200180831161041e57829003601f168201915b505050505081565b60046020528060005260406000206000915054906101000a900473ffffffffffffffffffffffffffffffffffffffff1681565b6006602052816000526040600020818154811061049257600080fd5b906000526020600020016000915091505080546104ae90611419565b80601f01602080910402602001604051908101604052809291908181526020018280546104da90611419565b80156105275780601f106104fc57610100808354040283529160200191610527565b820191906000526020600020905b81548152906001019060200180831161050a57829003601f168201915b505050505081565b7f000000000000000000000000000000000000000000000000000000000000000073ffffffffffffffffffffffffffffffffffffffff163373ffffffffffffffffffffffffffffffffffffffff16146105bd576040517f08c379a00000000000000000000000000000000000000000000000000000000081526004016105b4906112cb565b60405180910390fd5b6105c78282610813565b5050565b600560205281600052604060002081815481106105e757600080fd5b9060005260206000200160009150915050805461060390611419565b80601f016020809104026020016040519081016040528092919081815260200182805461062f90611419565b801561067c5780601f106106515761010080835404028352916020019161067c565b820191906000526020600020905b81548152906001019060200180831161065f57829003601f168201915b505050505081565b600760205281600052604060002081815481106106a057600080fd5b90600052602060002001600091509150505481565b60007f000000000000000000000000000000000000000000000000000000000000000073ffffffffffffffffffffffffffffffffffffffff16634000aea07f000000000000000000000000000000000000000000000000000000000000000085878660405160200161072892919061121b565b6040516020818303038152906040526040518463ffffffff1660e01b8152600401610755939291906111c2565b602060405180830381600087803b15801561076f57600080fd5b505af1158015610783573d6000803e3d6000fd5b505050506040513d601f19601f820116820180604052508101906107a79190610f28565b5060006107c88584306000808a815260200190815260200160002054610d84565b90506001600080878152602001908152602001600020546107e9919061133e565b600080878152602001908152602001600020819055506108098582610dc0565b9150509392505050565b6005600083815260200190815260200160002080600181540180825580915050600190039060005260206000200160006040518060400160405280600681526020017f77697a617264000000000000000000000000000000000000000000000000000081525090919091509080519060200190610891929190610df3565b506006600083815260200190815260200160002080600181540180825580915050600190039060005260206000200160006040518060400160405280600681526020017f647261676f6e000000000000000000000000000000000000000000000000000081525090919091509080519060200190610910929190610df3565b5060076000838152602001908152602001600020609690806001815401808255809150506001900390600052602060002001600090919091909150556005600083815260200190815260200160002080600181540180825580915050600190039060005260206000200160006040518060400160405280600681526020017f647261676f6e0000000000000000000000000000000000000000000000000000815250909190915090805190602001906109ca929190610df3565b506006600083815260200190815260200160002080600181540180825580915050600190039060005260206000200160006040518060400160405280600781526020017f77617272696f720000000000000000000000000000000000000000000000000081525090919091509080519060200190610a49929190610df3565b506007600083815260200190815260200160002060fa90806001815401808255809150506001900390600052602060002001600090919091909150556005600083815260200190815260200160002080600181540180825580915050600190039060005260206000200160006040518060400160405280600681526020017f707269657374000000000000000000000000000000000000000000000000000081525090919091509080519060200190610b03929190610df3565b506006600083815260200190815260200160002080600181540180825580915050600190039060005260206000200160006040518060400160405280600681526020017f647261676f6e000000000000000000000000000000000000000000000000000081525090919091509080519060200190610b82929190610df3565b506007600083815260200190815260200160002060fa90806001815401808255809150506001900390600052602060002001600090919091909150556005600083815260200190815260200160002080600181540180825580915050600190039060005260206000200160006040518060400160405280600681526020017f647261676f6e000000000000000000000000000000000000000000000000000081525090919091509080519060200190610c3c929190610df3565b506006600083815260200190815260200160002080600181540180825580915050600190039060005260206000200160006040518060400160405280600681526020017f707269657374000000000000000000000000000000000000000000000000000081525090919091509080519060200190610cbb929190610df3565b506007600083815260200190815260200160002060fa90806001815401808255809150506001900390600052602060002001600090919091909150556040518060400160405280600f81526020017f6d617463682067656e6572617465640000000000000000000000000000000000815250600360003373ffffffffffffffffffffffffffffffffffffffff1673ffffffffffffffffffffffffffffffffffffffff1681526020019081526020016000209080519060200190610d7f929190610df3565b505050565b600084848484604051602001610d9d9493929190611244565b6040516020818303038152906040528051906020012060001c9050949350505050565b60008282604051602001610dd592919061117b565b60405160208183030381529060405280519060200120905092915050565b828054610dff90611419565b90600052602060002090601f016020900481019282610e215760008555610e68565b82601f10610e3a57805160ff1916838001178555610e68565b82800160010185558215610e68579182015b82811115610e67578251825591602001919060010190610e4c565b5b509050610e759190610e79565b5090565b5b80821115610e92576000816000905550600101610e7a565b5090565b600081359050610ea5816114ce565b92915050565b600081519050610eba816114e5565b92915050565b600081359050610ecf816114fc565b92915050565b600081359050610ee481611513565b92915050565b600081519050610ef981611513565b92915050565b600060208284031215610f1157600080fd5b6000610f1f84828501610e96565b91505092915050565b600060208284031215610f3a57600080fd5b6000610f4884828501610eab565b91505092915050565b600060208284031215610f6357600080fd5b6000610f7184828501610ec0565b91505092915050565b60008060408385031215610f8d57600080fd5b6000610f9b85828601610ec0565b9250506020610fac85828601610ed5565b9150509250929050565b600060208284031215610fc857600080fd5b6000610fd684828501610ed5565b91505092915050565b600060208284031215610ff157600080fd5b6000610fff84828501610eea565b91505092915050565b61101181611394565b82525050565b611020816113b2565b82525050565b611037611032826113b2565b61144b565b82525050565b600061104882611306565b611052818561131c565b93506110628185602086016113e6565b61106b816114bd565b840191505092915050565b600061108182611311565b61108b818561132d565b935061109b8185602086016113e6565b6110a4816114bd565b840191505092915050565b60006110bc602b8361132d565b91507f4e6f7420656e6f756768204c494e4b202d2066696c6c20636f6e74726163742060008301527f77697468206661756365740000000000000000000000000000000000000000006020830152604082019050919050565b6000611122601f8361132d565b91507f4f6e6c7920565246436f6f7264696e61746f722063616e2066756c66696c6c006000830152602082019050919050565b61115e816113dc565b82525050565b611175611170826113dc565b611455565b82525050565b60006111878285611026565b6020820191506111978284611164565b6020820191508190509392505050565b60006020820190506111bc6000830184611008565b92915050565b60006060820190506111d76000830186611008565b6111e46020830185611155565b81810360408301526111f6818461103d565b9050949350505050565b60006020820190506112156000830184611017565b92915050565b60006040820190506112306000830185611017565b61123d6020830184611155565b9392505050565b60006080820190506112596000830187611017565b6112666020830186611155565b6112736040830185611008565b6112806060830184611155565b95945050505050565b600060208201905081810360008301526112a38184611076565b905092915050565b600060208201905081810360008301526112c4816110af565b9050919050565b600060208201905081810360008301526112e481611115565b9050919050565b60006020820190506113006000830184611155565b92915050565b600081519050919050565b600081519050919050565b600082825260208201905092915050565b600082825260208201905092915050565b6000611349826113dc565b9150611354836113dc565b9250827fffffffffffffffffffffffffffffffffffffffffffffffffffffffffffffffff038211156113895761138861145f565b5b828201905092915050565b600061139f826113bc565b9050919050565b60008115159050919050565b6000819050919050565b600073ffffffffffffffffffffffffffffffffffffffff82169050919050565b6000819050919050565b60005b838110156114045780820151818401526020810190506113e9565b83811115611413576000848401525b50505050565b6000600282049050600182168061143157607f821691505b602082108114156114455761144461148e565b5b50919050565b6000819050919050565b6000819050919050565b7f4e487b7100000000000000000000000000000000000000000000000000000000600052601160045260246000fd5b7f4e487b7100000000000000000000000000000000000000000000000000000000600052602260045260246000fd5b6000601f19601f8301169050919050565b6114d781611394565b81146114e257600080fd5b50565b6114ee816113a6565b81146114f957600080fd5b50565b611505816113b2565b811461151057600080fd5b50565b61151c816113dc565b811461152757600080fd5b5056fea2646970667358221220971920b94259d921f11ea82463fc836174f0ccd15baa4af8b76e4901b10970d764736f6c63430008000033",
  "immutableReferences": {
    "1054": [
      {
        "length": 32,
        "start": 453
      },
      {
        "length": 32,
        "start": 1721
      }
    ],
    "1056": [
      {
        "length": 32,
        "start": 1329
      },
      {
        "length": 32,
        "start": 1781
      }
    ]
  },
  "source": "// SPDX-License-Identifier: MIT\npragma solidity 0.8.0;\n\nimport \"./MyERC20.sol\";\nimport \"./dependencies/VRFConsumerBase.sol\";\n\ncontract TestgroundGame is VRFConsumerBase {\n  // Chainlink internal setup\n  bytes32 internal keyHash;\n  uint256 internal fee;\n\n  // Random handlers\n\n  mapping(address => string) public player_state;\n  mapping(bytes32 => address) public player;\n  mapping(bytes32 => string[]) public attacker_characters;\n  mapping(bytes32 => string[]) public attacked_characters;\n  mapping(bytes32 => uint256[]) public damage_dealt;\n\n  constructor()\n  public\n  VRFConsumerBase(\n    0x8C7382F9D8f56b33781fE506E897a4F1e2d17255 /* VRF Coordinator */,\n    0x326C977E6efc84E512bB9C30f76E30c160eD06FB /* Link Mumbai Token Contract */)\n  {\n    keyHash = 0x6e75b569a01ef56d18cab6a8e71e6600d6ce853834d4a5748b720d06f878b3a4;\n    fee = 0.0001 * 10 ** 18;\n  }\n\n  function roll(uint256 userProvidedSeed) public returns (bytes32 _requestId) {\n    require(LINK.balanceOf(address(this)) > fee, \"Not enough LINK - fill contract with faucet\");\n    bytes32 requestId = requestRandomness(keyHash, fee, userProvidedSeed);\n    player[requestId] = msg.sender;\n    player_state[msg.sender] = \"wating for oracle\";\n    return requestId;\n  }\n\n  function fulfillRandomness(bytes32 requestId, uint256 randomness) internal override {\n    attacker_characters[requestId].push(\"wizard\");\n    attacked_characters[requestId].push(\"dragon\");\n    damage_dealt[requestId].push(150);\n\n    attacker_characters[requestId].push(\"dragon\");\n    attacked_characters[requestId].push(\"warrior\");\n    damage_dealt[requestId].push(250);\n\n    attacker_characters[requestId].push(\"priest\");\n    attacked_characters[requestId].push(\"dragon\");\n    damage_dealt[requestId].push(250);\n\n    attacker_characters[requestId].push(\"dragon\");\n    attacked_characters[requestId].push(\"priest\");\n    damage_dealt[requestId].push(250);\n\n    player_state[msg.sender] = \"match generated\";\n    /*\n    if(randomness%6==5)\n    {\n      testground_token.transferFrom(address(this), requestIdToMsgSender[requestId], win_prize);\n    }\n    */\n  }\n}\n",
  "sourcePath": "/home/turupawn/Projects/Blockchain/Games/MaticGachaGame/contracts/TestgroundGame.sol",
  "compiler": {
    "name": "solc",
    "version": "0.8.0+commit.c7dfd78e.Emscripten.clang"
  },
  "schemaVersion": "3.4.0",
  "updatedAt": "2021-05-09T23:23:32.558Z",
  "networkType": "ethereum",
  "devdoc": {
    "kind": "dev",
    "methods": {},
    "version": 1
  },
  "userdoc": {
    "kind": "user",
    "methods": {},
    "version": 1
  }
}